:02000004080AE8
:1000000000000A08F00C0A080000050006000501BF
:080010000402CF000000000013
:10001800DC0A0A0809480A4908B5884205D0094A8D
:10002800824202D0121A00F039FD0748074A00211F
:10003800121A00F03EFD064808BD00BF000300206C
:10004800C40C0A08040300200403002064080020EC
:100058006408002070B500F067FB074B074C1E468C
:10006800E41AA4080025A54204D056F8253098477C
:100078000135F8E770BD00BF900C0A08C00C0A08EB
:1000880000F011B808B500F00FF8BDE8084000F01E
:1000980009BB00F0BDB80078B0FA80F0400970479D
:1000A8000123037070477047704700F019B80000CB
:1000B80008B5024B1B681B6B019308BDD0010608ED
:1000C80008B5024B1B685B68019308BD9C010608D4
:1000D80008B5024B1B685B69019308BD9C010608C3
:1000E80008B5024B1B681B68019308BDB0010608E0
:1000F80008B5024B1B68DB69019308BDB40106080B
:1001080008B5024B1B689B69019308BDC40106082A
:1001180008B5024B1B685B6A019308BDC401060859
:1001280008B5024B1B689B6A019308BDC401060809
:1001380008B5024B1B68DB6A019308BDC4010608B9
:1001480008B5024B1B681B6B019308BDC401060868
:1001580008B5024B1B685B6B019308BDC401060818
:1001680008B5024B1B681B6C019308BDC401060847
:1001780008B5024B1B681B68019308BDD801060827
:1001880008B5024B1B681B69019308BDD801060816
:1001980008B5024B1B685B69019308BDD8010608C6
:1001A80008B5024B1B689B69019308BDD801060876
:1001B80008B5024B1B68DB69019308BDD801060826
:1001C80008B5024B1B681B6A019308BDD8010608D5
:1001D80008B5024B1B685B68019308BDA4010608BB
:1001E80008B5024B1B685B6E019308BDA4010608A5
:1001F80008B5024B1B689B6E019308BDA401060855
:1002080008B5024B1B681B69019308BDC8010608A5
:1002180008B5024B1B685B68019308BDA00106087E
:1002280010B58368044613B1032201469847204657
:1002380010BD704710B50446FFF72BFF204610BDD0
:10024800F8B50F4600F10806051D002416F8011D33
:100258000A22384600F081F8AE42044407D0002C48
:10026800F4D02E21384600F04BF80444EEE720463F
:10027800F8BD10B59DF8084044EA032343EA02425A
:1002880042EA016104234160037510BD37B5044D8E
:1002980005609DF818500095FFF7EBFF03B030BDDF
:1002A800F80A0A08014A024B1A607047BF0B0A088D
:1002B80008030020F8B506460D468F180024BD42F5
:1002C8000CD0336815F8011B9B6830469847002806
:1002D80001DB0444F3E7002C08BF04462046F8BDC0
:1002E80070B505460C46084649B100F0EAFB2B6894
:1002F800024621462846BDE87040DB68184770BDB5
:1003080003689B681847012A98BF0A2230B50B4634
:100318008BB000218DF824100DF12304B3FBF2F506
:1003280005FB1233DBB2092B94BF30333733DBB212
:10033800214604F801392B46002DEFD1FFF7D0FFF5
:100348000BB030BD10B422B90368C9B29B6810BCA9
:100358001847D2B210BCFFF7D6BFFFF7F3BF10B5EE
:100368000446FFF75DFF204610BD00000348002348
:100378008360034A034900F035BA00BF0C0300202C
:100388000403002067030A08704710B50446FFF706
:1003980080FE204610BD000070B504460E46074B8F
:1003A8000025036040F80C5FFFF782FE3046267197
:1003B800FFF79EFEA560204670BD00BFF00B0A083F
:1003C8000020FFF705BF0000024B1A68024B1A60B5
:1003D800704700BF000300201C03002070474174D1
:1003E8007047007CFFF7BCBE007CFFF799BE007C1D
:1003F800FFF7A6BE007CFFF79BBE007CFFF7A8BEF8
:1004080010B50446FFF745FE204610BD70B5457C83
:1004180004460E4625B9007CFFF7A2FE002805DD3C
:100428003146207CBDE87040FFF772BE284670BD9B
:1004380010B5044608461146002262604FF47A72ED
:10044800A260054A20742260012262741A46FFF7EE
:1004580057FE204610BD00BF2C0C0A0838B50C4DBD
:10046800296811F0010411D12846FFF714FE68B17C
:10047800084A2146084B0948FFF7DAFF2846FFF7E4
:100488000FFE074A0749054800F0ACF9034838BD94
:10049800B8030020BC030020340300202003002000
:1004A80004030020E5030A084174704770470021DF
:1004B800007CFFF775BE0121007CFFF771BE007C50
:1004C800FFF766BE007CFFF75BBE38B50446007CCC
:1004D8000D46FFF75DFE002801DC607C20B129464F
:1004E800207CFFF765FE012038BD007CFFF768BE61
:1004F80010B50446FFF7CDFD204610BD10B50446E3
:10050800002363604FF47A73A360054B08462360A9
:100518000123217463741146FFF72AFE204610BD9B
:100528005C0C0A0810B504461422002100F0C1FA38
:10053800054B20466360054BE36040F201132381BD
:100548008123238210BD00BFC5040020440400207D
:1005580030B50E4D87B001A8FFF7E4FF296811F008
:10056800010410D12846FFF796FD60B101AA214683
:100578000748FFF7C3FF2846FFF792FD054A0649DB
:10058800034800F02FF9024807B030BD40040020AE
:10059800C805002004030020B5040A0810B5044665
:1005A8001422002100F085FA054B20466360054BB4
:1005B800E36040F2011323818123238210BD00BF31
:1005C80078060020E005002010B50E4C86B001A882
:1005D800FFF7E4FF2368DB0710D42046FFF75BFD35
:1005E80060B101AA01210848FFF788FF2046FFF7FC
:1005F80057FD064A0649044800F0F4F8024806B0D8
:1006080010BD00BFDC0500206406002004030020A4
:10061800B5040A087047002211461046FFF7F0BDDE
:100628000348044B044A0549036000F0DBB800BFE7
:100638007C0700208C0C0A08040300201D060A0809
:1006480008B5144B33B1FFF783FF03681B6998475C
:10065800002816DC104B33B1FFF700FF03681B6955
:100668009847002810DC0D4B0BB1AFF300800C4B02
:100678007BB1FFF7A9FF03681B699847002806DCD0
:1006880008BDAFF30080E5E7AFF30080EBE7AFF319
:10069800008008BD0000000000000000000000000D
:1006A8000000000008B5FFF7CBFFFFF711FD014B75
:1006B800186008BD880700200248034A0349121A37
:1006C80000F0ECB90040024004400240C00C0A08A7
:1006D8000020704737B5436804460A2B0ED0502BCC
:1006E8001CD1104B1D68CDB1037D4FF400710093F0
:1006F800C26800F110038068A84707E000F1100302
:10070800C2684FF400718068FFF7E2FF30B1002241
:1007180020461146FFF76CFD012000E0002003B0E1
:1007280030BD00BF8007002038B50C4C0C4D236845
:10073800AB420C4B0CBF012200221A7002D0FFF70B
:10074800BBFF2560084B1BB1FFF7BAFCAFF3008075
:10075800BDE8384000210548FFF742BD004002408F
:100768001E1C279A8407002000000000DD060A08E6
:1007780013B5084C00231A46194600932046FFF784
:1007880085FD2046044A054902B0BDE8104000F046
:1007980029B800BF8C070020040300203B020A0888
:1007A80070B50C4C0C4E0D4D00212046FFF7F4FDA2
:1007B80020460B4C3246294600F014F80121204609
:1007C800FFF7EAFD324629462046BDE8704000F0B2
:1007D80009B800BFA40700200403002091030A08F9
:1007E800B40700200B460146184600F049B900003E
:1007F800244B1A68D0075CBF01221A60224B1A6882
:10080800D1075CBF01221A60204B1A68D2075CBF6F
:1008180001221A601E4B1A68D0075CBF01221A60B9
:100828001C4B1A68D1075CBF01221A601A4B1A6860
:10083800D2075CBF01221A60184B1A68D0075CBF48
:1008480001221A60164B1A68D1075CBF01221A6090
:10085800144B1A68D2075CBF01221A60124B1A683F
:10086800D0075CBF01221A60104B1A68D1075CBF21
:1008780001221A600E4B1A68D2075CBF01221A6067
:10088800704700BFF0070020EC070020E8070020B1
:10089800E4070020E0070020DC070020D80700203C
:1008A800D4070020D0070020CC070020C80700206C
:1008B800C4070020184B1A68D1075CBF01221A60D0
:1008C800164B1A68D2075CBF01221A60144B1A68CB
:1008D800D0075CBF01221A60124B1A68D1075CBFAF
:1008E80001221A60104B1A68D2075CBF01221A60F5
:1008F8000E4B1A68D0075CBF01221A600C4B1A68AD
:10090800D1075CBF01221A600A4B1A68D2075CBF84
:1009180001221A60704700BF100800200C08002050
:10092800080800200408002000080020FC07002018
:10093800F8070020F4070020184B1A68D1075CBF9D
:1009480001221A60164B1A68D2075CBF01221A608E
:10095800144B1A68D0075CBF01221A60124B1A6840
:10096800D1075CBF01221A60104B1A68D2075CBF1E
:1009780001221A600E4B1A68D0075CBF01221A6068
:100988000C4B1A68D1075CBF01221A600A4B1A681F
:10099800D2075CBF01221A60704700BF30080020F0
:1009A8002C08002028080020240800202008002007
:1009B8001C0800201808002014080020244B1A687E
:1009C800D0075CBF01221A60224B1A68D1075CBFAE
:1009D80001221A60204B1A68D2075CBF01221A60F4
:1009E8001E4B1A68D0075CBF01221A601C4B1A689C
:1009F800D1075CBF01221A601A4B1A68D2075CBF84
:100A080001221A60184B1A68D0075CBF01221A60CD
:100A1800164B1A68D1075CBF01221A60144B1A687A
:100A2800D2075CBF01221A60124B1A68D0075CBF5C
:100A380001221A60104B1A68D1075CBF01221A60A4
:100A48000E4B1A68D2075CBF01221A60704700BFBC
:100A5800600800205C080020580800205408002086
:100A6800500800204C0800204808002044080020B6
:100A7800400800203C0800203808002034080020E6
:100A880010B5054C13462CB10A4601460220AFF3B7
:100A9800008010BD204610BD0000000010B5431EA8
:100AA8000A44914204D011F8014B03F8014FF8E7CA
:100AB80010BD03460244934202D003F8011BFAE733
:100AC8007047034613F8012B002AFBD1181A013886
:100AD800704700001D000A085D000A0889000A081E
:100AE8008D000A080000000000000000000000005F
:100AF80049020A083B020A083D020A0866006C6EB1
:100B080000666E00636F64650064657461696C00FB
:100B18000D0A00253031307520005D200025640065
:100B28002C200028293A2000205B00636F64652090
:100B38003D200025690064657461696C73203D205F
:100B480000626175640053657269616C00555342B7
:100B580053657269616C31007479706500706172F7
:100B6800616D00636D6400696400686E640073748D
:100B7800726D0066696C74006C766C006164644820
:100B8800616E646C65720072656D6F766548616E42
:100B9800646C657200656E756D48616E646C657233
:100BA80073004A534F4E53747265616D4C6F6748BA
:100BB800616E646C657200617070006E6F6E6500C6
:100BC800747261636500696E666F007761726E00AA
:100BD8006572726F720070616E696300616C6C009F
:100BE800000000000000000091030A0893030A08AF
:100BF8005A00252B3033643A253032750025592D9B
:100C0800256D2D25645425483A254D3A2553257AD6
:100C18000061736374696D650000000000000000E6
:100C280000000000E5030A0809040A0815040A0878
:100C3800BD020A08F1030A08FD030A08F7030A08B7
:100C480003040A08E7030A08EB030A080000000087
:100C580000000000B5040A08F9040A08D3040A08C9
:100C6800BD020A08CD040A08B7040A08BF040A0826
:100C7800F3040A08C7040A08B1040A0800000000BF
:100C8800000000001F060A08B3000A08AD020A089F
:100C980075030A08C9030A08D1030A0829060A08BD
:100CA80079070A08A9070A08F9070A08BD080A08FF
:080CB80041090A08C5090A08F8
:040CC0000000000030
:040CC400190C0A08F5
:100CC800FFFFFFFF00000102030405060708090AE9
:100CD8000B0C0D0E0F101112131415161718191AE4
:080CE8001B1C1D1E1F2028002B
:040CF00078563412EC
:04000005080A0018CD
:00000001FF
